:020000040800F2
:10000000FCFF0020511800004918000049180000AA
:10001000491800004918000049180000491800005C
:10002000491800004918000049180000491800004C
:10003000491800004918000049180000491800003C
:10004000491800004918000049180000491800002C
:10005000491800004918000049180000491800001C
:10006000491800004918000049180000491800000C
:1000700049180000491800004918000049180000FC
:1000800049180000491800004918000049180000EC
:1000900049180000491800004918000049180000DC
:1000A00049180000491800004918000049180000CC
:1000B00049180000491800004918000049180000BC
:1000C00049180000491800004918000049180000AC
:1000D000491800004918000049180000491800009C
:1000E000491800004918000049180000491800008C
:1000F000491800004918000049180000491800007C
:10010000491800004918000049180000491800006B
:10011000491800004918000049180000491800005B
:10012000491800004918000049180000491800004B
:10013000491800004918000049180000491800003B
:10014000491800004918000049180000491800002B
:1001500001480068704700BF7C00002081B0194949
:1001600000EA0101084600220EE0042022E00820F7
:1001700020E010201EE020201CE040201AE080201B
:1001800018E040F2001015E00F498842EDD00F4909
:100190008842ECD00E498842EBD00E498842EAD022
:1001A0000D498842E9D00D498842E8D00C4988427F
:1001B000E7D010460B49096841EA000209490A6084
:1001C00001B0704700FCFFFF00080140000C014037
:1001D000001001400014014000180140001C0140C3
:1001E000002001401810024082B0CDF800E0034624
:1001F00019460191FFF7ACFF40F2E83100FB01F234
:1002000001990A601F490978C1F30311C8B21E4958
:1002100009180878C0B21A1D1968C140116019493F
:100220000988C1F3022188B2174909180878C0B2B9
:1002300003F20802191D0968C140116011490988BB
:10024000C1F3C22188B2104909180878C0B203F27C
:100250000C02191D0968C14011600A490988C1F3DF
:10026000813188B2094909180978C8B203F210022D
:1002700003F20C010968B1FBF0F11160DDF800E058
:1002800002B0704704100240EC1B00007C0A000022
:1002900083B0CDF800E000F0FF031A09104603F028
:1002A0000F02134614E0194A02921FE0184A029204
:1002B0001CE0184A029219E0174A029216E0174A07
:1002C000029213E0164A029210E0164A02920DE0E2
:1002D0000028E8D00128E9D00228EAD00328EBD092
:1002E0000428ECD00528EDD00628EED0012212B269
:1002F0009A40ADF8042002980A46BDF8041000F0B8
:100300001DFADDF800E003B0704700BF00080140AF
:10031000000C014000100140001401400018014091
:10032000001C01400020014081B0ADF800100146E2
:10033000BDF800000B68C3F3C01202B9FAE70A1D4A
:10034000106001B07047FFFF81B0CDF800E00122DE
:1003500052B23E490A6000F268010B686FF000611A
:1003600003EA0102144603F00061C90E0B4602F0D5
:100370000041B1F1004F02D135490A6801E0354929
:100380000A6804F47021090C0E464FF6FF7104EA66
:1003900001010D4604F44011B1F5401F0DD16FF07D
:1003A000706102EA01010E462A490A686FF0706125
:1003B0000A4028490A60324616E004F48011B1F57B
:1003C000801F09D14FF00301B140C94302EA010186
:1003D00041F070610A4607E0610D090105FA01F17B
:1003E000C9430A4042F070622BB1610D090105FA60
:1003F00001F10A43FFE704F00041B1F1004F02D1DF
:1004000013490A6001E013490A6040F2000A81467C
:100410004FEA8A0109EB01010968B1F1FF3F10D0F1
:1004200009F134014FEA8A03C91809680A4609EB41
:100430000301096808461146FFF72AFF0AF1010A7D
:10044000E6E7DDF800E001B0704700BF000342427C
:100450001C0001400400014081B000F20C02116058
:1004600000F208021368C3F3000202B9F8E700F2D1
:100470000C02126890B201B07047FFFF81B00023F8
:100480000360CB009BB242EA030304689BB244EAD8
:1004900003030360051D13141C462B6864F38203D9
:1004A0002B6000F21C0500242B6864F3CB232B6027
:1004B0000124036864F38613036001B07047FFFFF3
:1004C00081B0CDF800E081B20348FFF7C5FFDDF849
:1004D00000E001B0704700BF0030014089B0CDF8A6
:1004E00000E0834698B28C46BDF824100A9E04AC06
:1004F000ADF80410ADF808002046FFF775FEBDF812
:100500000800BDF80410644CA34512D101256DB25A
:10051000624C2560624D634C2560634D634C2560E1
:10052000634D644C2560644D644C2560079C0394C6
:1005300056E0634CA34512D101256DB2614C256094
:10054000614D584C2560614D584C2560604D594CAB
:100550002560604D594C2560069C039440E05E4C3C
:10056000A34512D101256DB25C4C25605C4D4D4C0C
:1005700025605C4D4D4C25605B4D4E4C25605B4DC0
:100580004E4C2560069C03942AE0594CA34512D199
:1005900001256DB2574C2560574D424C2560574D93
:1005A000424C2560564D434C2560564D434C2560CA
:1005B000069C039414E0544CA34511D101256DB25F
:1005C000524C2560524D374C2560524D374C2560BA
:1005D000514D384C2560514D384C2560069C039494
:1005E000ADF80410ADF808003046FFF7ADFEBDF8D9
:1005F0000800BDF804100BF1100500242C600BF16D
:1006000010052C680C432C600BF10C0500242C60A9
:1006100018B140F4806080B2FFE70BF10C052C6844
:1006200004432C600BF10C060125346865F34D344E
:1006300034600BF10C060125346865F3C3043460A3
:100640000BF10C060125346865F3820434600BF16C
:10065000140500242C60039D192465434FEA8C0483
:10066000B5FBF4F76424B7FBF4F4260135096424E0
:100670006C433C1B240104F232056424B5FBF4F402
:1006800004F00F0446EA04040BF10805A4B22C6040
:10069000DDF800E009B070470038014038034242FD
:1006A000610A000088000020FFFFFFFF8C0000208F
:1006B000FFFFFFFF90000020FFFFFFFF94000020DE
:1006C00000440040C40342420D0A0000FFFFFFFF48
:1006D000FFFFFFFFFFFFFFFF00480040C80342424B
:1006E000B9090000FFFFFFFFFFFFFFFFFFFFFFFF54
:1006F000004C0040CC034242D5090000FFFFFFFF41
:10070000FFFFFFFFFFFFFFFF00500040D00342420A
:10071000F1090000FFFFFFFFFFFFFFFFFFFFFFFFEB
:1007200081B0CDF800E081B20348FFF795FEDDF817
:1007300000E001B0704700BF0038004081B0CDF844
:1007400000E08CB21546774B00EA03031E461846BC
:10075000FFF704FDB4F1FF0F0CD1734B9D4203D1A1
:100760004FF033333360D9E0422D03D14FF044339F
:100770003360D3E04FF6FF739C4214D16A4B9D4225
:1007800007D14FF033333360341D4FF033332360E0
:10079000C4E0422D07D14FF044333360341D4FF095
:1007A00044332360BAE00021002005F001030BB1BF
:1007B00000211DE005F0020333B105F4C0730BB155
:1007C000082100E0042113E005F0040333B105F033
:1007D00020030BB1042100E0002109E005F008032B
:1007E00033B105F020030BB10C2100E00821FFE735
:1007F0004E4B05EA03030BB1032009E005F4007337
:100800000BB1022004E005F480630BB10120FFE787
:1008100005F00C030BB10143FFE704F0FF039BB2AB
:10082000002B3BD0376800201FFA84F832462E4652
:1008300008282CD24FF0010303FA00F408EA04035D
:10084000A34222D185004FF00F03AB40DB4307EA00
:10085000030401FA05F344EA03031D4606F4817319
:10086000B3F5817F05D102F214044FF001038340F8
:10087000236006F08203822B05D102F210044FF0B0
:100880000103834023602F46FFE7401CD0E7176039
:100890001FFA88F00F463146164602E00F462946F9
:1008A000A0B2B0F1FF0F39D9331DD3F80080002278
:1008B000082A30D202F208044FF0010303FA04F4CC
:1008C00000EA0403A34224D195004FF00F03AB408C
:1008D000DB4308EA030807FA05F348EA030801F4D2
:1008E0008173B3F5817F07D106F2140502F2080483
:1008F0004FF00103A3402B6001F08203822B07D14C
:1009000006F2100502F208044FF00103A3402B6029
:10091000FFE7521CCCE7331DC3F80080DDF800E090
:1009200001B0704700FCFFFF140008000008080039
:1009300081B0CDF800E081B20348FFF78DFDDDF80E
:1009400000E001B0704700BF003C004081B0CDF82E
:1009500000E0019D2C4610B408B493B28AB201465F
:100960000348FFF7BBFD02B0DDF800E001B07047BF
:100970000044004081B0CDF800E0019D2C4610B449
:1009800008B493B28AB201460348FFF7A7FD02B04C
:10099000DDF800E001B070470038014081B0CDF8CB
:1009A00000E081B20348FFF757FDDDF800E001B039
:1009B000704700BF0030014081B0CDF800E081B247
:1009C0000348FFF7B1FCDDF800E001B0704700BF5D
:1009D0000048004081B0CDF800E081B20348FFF745
:1009E000A3FCDDF800E001B0704700BF004C004000
:1009F00081B0CDF800E081B20348FFF795FCDDF847
:100A000000E001B0704700BF0050004081B0CDF859
:100A100000E081B20348FFF787FCDDF800E001B099
:100A2000704700BF0044004081B0CDF800E081B2C3
:100A30000348FFF711FDDDF800E001B0704700BF8B
:100A40000038004081B0CDF800E081B20348FFF7E4
:100A500003FDDDF800E001B0704700BF003C00403E
:100A600081B0CDF800E081B20348FFF75DFCDDF80E
:100A700000E001B0704700BF0038014002040608E2
:100A800040F20B07C0F200077F1EFDD100BF00BF80
:100A900000BF00BF00BF704729E0002050E00020E9
:100AA0004EE000204CE000204AE0002048E000201A
:100AB00046E0002044E0002042E0002040E000202A
:100AC0003EE000203CE000203AE0002038E000203A
:100AD00036E0002034E0002032E0002030E000204A
:100AE0002EE000202CE000202AE0012028E0002851
:100AF000D3D00128D3D00228D3D00328D3D00428C0
:100B0000D3D00528D3D00828D3D00928D3D00A2899
:100B1000D3D00F28D3D01028D3D01228D3D0142864
:100B2000D3D01528D3D01D28D3D01E28D3D0202829
:100B3000D3D02128D3D02528D3D07F28D3D0D4E731
:100B40007047FFFF83B0CDF800E08DF804000291FC
:100B50000B4C0C4B1C600C4C0C4B1C60012464B205
:100B60000B4B1C601046FFF7EFFB029A9DF8041038
:100B70000848FFF783FCDDF800E003B0704700BFD2
:100B80003109000080000020450A00008400002098
:100B9000BC034242003C004083B0CDF800E08AB282
:100BA000014690B283B2421E90B26BB10A78D4B2C1
:100BB000ADF804000291A0B2054C2468A047029948
:100BC000BDF80400491CEDE7DDF800E003B0704714
:100BD0006800002084B0CDF800E0ADF80C20019052
:100BE0000291BDF80C40BDF80C305B1EADF80C3026
:100BF0007CB1019B1B78DCB2A0B2084C2468A047F2
:100C0000029B1870029B5B1C0293019B5B1C01936F
:100C1000E7E7DDF800E004B0704700BF6C0000209B
:100C200081B0CDF800E04FF0420289B2FFF786FDB7
:100C3000DDF800E001B0704781B0CDF800E0044A73
:100C400089B2FFF77BFDDDF800E001B0704700BF1F
:100C50001400080081B0CDF800E0019D2C4610B4CE
:100C600008B493B28AB201460348FFF737FC02B0DA
:100C7000DDF800E001B0704700480040014908601D
:100C8000704700BFAC01224201490860704700BFB5
:100C9000A801224201490860704700BFB08122428A
:100CA00001490860704700BFB00122420149086055
:100CB000704700BFB881224201490860704700BFF9
:100CC0009881214201490860704700BFA0812242FB
:100CD00001490860704700BF9C81214201490860BA
:100CE000704700BF8C01224201490860704700BF75
:100CF0009401214201490860704700BF948122425B
:100D000000F230011C310A6806490A6000F208014D
:100D10000A6805490A6000F218010A6803490A6076
:100D2000704700BF70000020740000207800002091
:100D300001490860704700BF98812242014908605C
:100D4000704700BFB081224283B0CDF800E0C3B24B
:100D5000D8B2FFF7A1FE8DF8080010B19DF8080089
:100D60001DE001AC5A002270631C0A0C1A70A31C0F
:100D70000A0A1A70E21C117000200B4C2468A0476C
:100D8000FFF77EFE01AA04211046FFF705FF0120B0
:100D9000054C2468A047FFF773FE9DF80800DDF8B6
:100DA00000E003B0704700BF7400002085B0CDF8AC
:100DB00000E0C3B2D8B2FFF76FFE8DF8100010B19B
:100DC0009DF810003CE002AC5A002270227842F0FC
:100DD00001022270631C00221A70A31C00221A70E8
:100DE000E31C00221A7001910020174C2468A047D0
:100DF0000199FFF745FE03AB02AA0191194610467F
:100E00000422FFF7E7FE01200F4C2468A047019958
:100E1000FFF736FE03AC621C12780A600A68120201
:100E20000A60A21C13780A681A430A600A68120250
:100E30000A60E21C13780A681A430A609DF81000E1
:100E4000DDF800E005B070477400002081B00A466C
:100E5000014600200D4611460A2805D20B18202213
:100E60001A70401C80B2F7E70B1800221A70401E5F
:100E700080B20C180A23B5FBF3F203FB1252303296
:100E800022700A22B5FBF2F2154602B902E0401EBA
:100E900080B2EEE701B0704701490860704700BFBB
:100EA0009C81214201490860704700BF988121421E
:100EB000026803490A60011D0A6802490A60704716
:100EC000680000206C00002001490860704700BFE6
:100ED000A481224281B0CDF800E0094902B440F279
:100EE000000340F2000240F20001FFF743FD01B0B1
:100EF000044A05490A600020DDF800E001B07047AF
:100F0000201A0000610A00006400002081B0CDF8C2
:100F100000E0094902B440F2000340F2000240F24E
:100F20000001FFF713FD01B0044A05490A600020E3
:100F3000DDF800E001B07047B41900000D0A0000B0
:100F40006400002081B0CDF800E00178CCB2A0B2FE
:100F5000034C2468A0470020DDF800E001B0704792
:100F60006400002081B0CDF800E0094902B440F2ED
:100F7000000340F2000240F20001FFF7E7FC01B07D
:100F8000044A05490A600020DDF800E001B070471E
:100F9000B41900000D0A00006400002081B0CDF8F3
:100FA00000E0094902B440F2000340F2000240F2BE
:100FB0000001FFF74FFE01B0044A05490A60002016
:100FC000DDF800E001B07047F81A0000B909000030
:100FD0006400002081B0CDF800E0A9E0012905D12E
:100FE00040F220016548FFF71BFE04E040F22001BB
:100FF0006248FFF721FEBBE0012905D140F208015C
:101000005F48FFF70DFE04E040F208015C48FFF77F
:1010100013FEADE0012905D144F200015948FFF764
:10102000FFFD04E044F200015648FFF705FE9FE093
:10103000012905D140F200415148FFF7F1FD04E0DC
:1010400040F200414E48FFF7F7FD91E0012905D13C
:1010500040F600014A48FFF7E3FD04E040F60001D6
:101060004748FFF7E9FD83E0012905D141F200017E
:101070004348FFF7D5FD04E041F200014048FFF787
:10108000DBFD75E0012905D141F200013D48FFF784
:10109000C7FD04E041F200013A48FFF7CDFD67E0EB
:1010A000012905D140F600013648FFF7B9FD04E0FB
:1010B00040F600013348FFF7BFFD59E0012905D193
:1010C00040F240012F48FFF7ABFD04E040F2400141
:1010D0002C48FFF7B1FD4BE0012905D140F220017A
:1010E0002848FFF79DFD04E040F220012548FFF766
:1010F000A3FD3DE0012905D140F240012248FFF760
:101100008FFD04E040F240011F48FFF795FD2FE0FE
:10111000012905D140F280011B48FFF781FD04E061
:1011200040F280011848FFF787FD21E0012020E010
:1011300000283FF453AF01283FF45EAF02283FF48C
:1011400069AF03283FF474AF04283FF47FAF05284C
:101150003FF48AAF06283FF495AF0728A0D00828AF
:10116000ACD00928B8D00A28C4D00B28D0D0DDE7ED
:101170000020DDF800E001B0704700BF000801402A
:101180000010014000140140000C014081B0CDF876
:1011900000E0A9E0012905D140F210016548FFF700
:1011A0003FFD04E040F210016248FFF745FDBBE05F
:1011B000012905D140F204015F48FFF731FD04E049
:1011C00040F204015C48FFF737FDADE0012905D18D
:1011D00042F200015948FFF723FD04E042F200010A
:1011E0005648FFF729FD9FE0012905D140F2004153
:1011F0005148FFF715FD04E040F200414E48FFF76B
:101200001BFD91E0012905D140F600014A48FFF796
:1012100007FD04E040F600014748FFF70DFD83E0BD
:10122000012905D141F200014348FFF7F9FC04E030
:1012300041F200014048FFF7FFFC75E0012905D1AC
:1012400040F201013B48FFF7EBFC04E040F20101F2
:101250003848FFF7F1FC67E0012905D140F2004171
:101260003648FFF7DDFC04E040F200413348FFF769
:10127000E3FC59E0012905D140F200212F48FFF796
:10128000CFFC04E040F200212C48FFF7D5FC4BE0F6
:10129000012905D140F200112848FFF7C1FC04E004
:1012A00040F200112548FFF7C7FC3DE0012905D1B8
:1012B00040F240012248FFF7B3FC04E040F2400155
:1012C0001F48FFF7B9FC2FE0012905D140F280014A
:1012D0001B48FFF7A5FC04E040F280011848FFF727
:1012E000ABFC21E0012020E000283FF453AF0128AF
:1012F0003FF45EAF02283FF469AF03283FF474AFB8
:1013000004283FF47FAF05283FF48AAF06283FF456
:1013100095AF0728A0D00828ACD00928B8D00A2853
:10132000C4D00B28D0D0DDE70020DDF800E001B00C
:10133000704700BF00080140001001400014014048
:10134000000C014081B0CDF800E0011D0A68016881
:10135000C8B21146034AFFF7F5FB0020DDF800E0B4
:1013600001B070478C1A000081B0CDF800E0011D7B
:101370000A680168C8B21146034AFFF7E3FB002080
:10138000DDF800E001B070478C1A000001490860E8
:10139000704700BFA801224201490860704700BFA2
:1013A000B481224201490860704700BFAC0122426B
:1013B00001490860704700BF80012142014908606F
:1013C000704700BFB001224201490860704700BF6A
:1013D000A881224201490860704700BF9001214264
:1013E00001490860704700BF8801224281B0CDF8F2
:1013F00000E04FF000010A20FFF7A6FCDDF800E056
:1014000001B07047FFFFFFFF81B0CDF800E01C483E
:1014100001684CF25030814222D9194800681949BC
:10142000FFF714FD0121174800F0ACF81648012120
:1014300000F0A8F8154800681249FFF707FD0221DF
:10144000104800F09FF811480068B0F1FF3F03D149
:1014500000210E48016003E00C490868401C086048
:1014600047F2FF67C0F201077F1EFDD100BF00BF3A
:1014700000BF00BF00BFDDF800E001B0704700BF53
:101480002C00002030000020260000202800002032
:1014900081B0CDF800E05FFA81F95FFA82FA0FE0DF
:1014A0005FFA8AF15FFA89F0FFF770FE0DE05FFAEC
:1014B0008AF15FFA89F0FFF78DFD06E0012004E074
:1014C0000028EDD00128F2D0F8E7DDF800E001B007
:1014D0007047FFFF82B0CDF800E001900146212067
:1014E000FFF764FC0198016889090160DDF800E0FC
:1014F00002B0704781B0CDF800E00D491020FFF731
:1015000023FC4FF4E0011220FFF71EFC4FF43021C2
:101510001420FFF719FC07491520FFF715FC0649B1
:101520001D20FFF711FCDDF800E001B0704700BF9F
:10153000071008000050800000A63F0081B0CDF8E1
:1015400000E011E00846FFF729FD16E00846FFF726
:10155000DDFC12E00846FFF7BDFC0EE00846FFF791
:1015600001FD0AE0012008E00028EBD00128EDD0C1
:101570002028EFD03028F1D0F4E7DDF800E001B00A
:101580007047FFFF83B0CDF800E0024610460D2201
:101590008DF808200A228DF809201FE0FFF7D2FC01
:1015A00023E002782AB10190FFF7CCFC0198401C9F
:1015B000F7E71AE002782AB10190FFF7C3FC01981F
:1015C000401CF7E702AA1046FFF7BCFC0DF1090228
:1015D0001046FFF7B7FC08E0062007E00029DDD041
:1015E0000129DED00229E5D0F6E70020DDF800E091
:1015F00003B0704781B0CDF800E003460846FFF71E
:1016000057FC1846FFF77CFB0120034C2468A047D9
:10161000DDF800E001B070477400002081B0CDF823
:1016200000E08B4609E05846FFF79EFE0AE0584668
:10163000FFF788FE06E0012004E00028F3D001282F
:10164000F5D0F8E7DDF800E001B0704781B0CDF8E3
:1016500000E04FF000010820FFF776FBDDF800E026
:1016600001B0704781B01CF8019B0BF8019BBBEBEC
:101670000A0FF8D101B0704781B0CDF800E01D49E4
:101680001D48FFF7B7FF4EF67F67C0F2360700BF71
:1016900000BF7F1EFDD100BF00BF00BFFFF7D6FF18
:1016A000FFF7A4FE44F67F77C0F2120700BF00BF29
:1016B0007F1EFDD100BF00BF00BFFFF71BFF002151
:1016C0000E4801604EF67F67C0F2360700BF00BFCC
:1016D0007F1EFDD100BF00BF00BF09480221FFF7F8
:1016E00051FF08480221FFF74DFFDDF800E001B08F
:1016F000704700BFFC1B0000641B00002800002096
:10170000100000202500002081B01548006840F03E
:101710000101134801601349134801601048016832
:10172000124801400E4801600D4801686FF48020A6
:1017300001400B4801600C4801686FF4FE00014055
:1017400009480160064801686FF0A0500140044854
:1017500001604FF000010648016001B0704700BF12
:10176000001002400000FFF004100240FFFFF6FEF0
:101770002C10024081B0CDF800E00448FFF7AAFE2B
:10178000FFF742FEDDF800E001B070472C000020BA
:1017900081B0CDF800E0012207210020FFF778FE9C
:1017A000002202210020FFF773FE00220621002004
:1017B000FFF76EFE0E4801460020FFF72FFF4FF4A3
:1017C000E1312020FFF7BAFE0A480221FFF7DAFED6
:1017D00044F67F77C0F212077F1EFDD100BF00BF25
:1017E00000BF00BF00BFDDF800E001B0704700BFE0
:1017F000041C00000000002081B04FF000094FF0F1
:10180000000CBDEB0A0F04DCBDEB0B0F01DBD44673
:10181000EA464BF8049BBBEB0A0FFAD1BCEB0A0F6C
:1018200005DDE246D9F800B00BF1040BF1E701B099
:101830007047FFFF81B002490248016001B0704764
:10184000401901007C00002081B0FEE701B0704724
:1018500000F00EF800F01AFAFFF7ECFF00F0D6F9EE
:10186000FFF796FFFFF708FFFFF784FFFCE7FEE7AF
:1018700081B0CDF800E0464A464B474C47494BF60D
:101880008030814206D94648006840F00201444851
:10189000016011E045F6C050814206D94048006819
:1018A00040F001013E48016006E03D4801686FF0EC
:1018B000070001403A480160FFF726FF39480360FE
:1018C00039480460394802EA00013948016002F0F1
:1018D000010040B119463648006800F002000028B7
:1018E00000D1F8E700E0194602F4803040B10B4621
:1018F0002F48006800F40030002800D1F8E700E02D
:101900000B4602F0805068B12948006840F08051D1
:10191000274801602648006800F00050002800D1E8
:10192000F8E7FFE702F0806078B12148006840F0F6
:1019300080611F48016011461A461D48006800F08A
:101940000060002800D1F8E701E011461A4601F0D6
:10195000807070B11648006840F0807114480160D2
:1019600011461348006800F0007000B9F9E70A4614
:10197000FFE70C48006800F00C01900000F00C003C
:10198000814200D0F5E7DDF800E001B0704700BF0C
:101990008100010502841D00440601004019010078
:1019A00000200240041002402C100240FFFF0F00F4
:1019B000001002403500000036000000FFFFFFFF6E
:1019C0000000000000000000000000000000000017
:1019D0000000000000000000000000000000000007
:1019E00000000000000000001808000018000000BF
:1019F00000000000000000000000000000000000E7
:101A000000000000000000000000000000000000D6
:101A100000000000000000000000000008000008B6
:101A2000090000000A000000FFFFFFFF00000000A7
:101A300000000000000000000000000000000000A6
:101A40000000000000000000000000000000000096
:101A5000000000001808000018000000000000004E
:101A60000000000000000000000000000000000076
:101A70000000000000000000000000000000000066
:101A80000000000000000000040000002A00000028
:101A90002B0000002C000000FFFFFFFF00000000F3
:101AA0000000000000000000000000000000000036
:101AB0000000000000000000000000000000000026
:101AC00018080000180800001808000000000000B6
:101AD0000000000000000000000000000000000006
:101AE00000000000000000000000000000000000F6
:101AF000000000000011200838000000390000003C
:101B0000FFFFFFFF000000000000000000000000D9
:101B100000000000000000000000000000000000C5
:101B20000000000000000000000000001808000095
:101B3000180000000000000000000000000000008D
:101B40000000000000000000000000000000000095
:101B50000000000000000000000000000000000085
:101B600030001408D5130000E113000099130000A1
:101B70008D130000A5130000BD130000B113000079
:101B8000C9130000C90E0000C50C0000B90C00000C
:101B9000D10C0000FFFFFFFFFFFFFFFFFFFFFFFF74
:101BA000FFFFFFFFFFFFFFFFFFFFFFFFFFFFFFFF45
:101BB000FFFFFFFFFFFFFFFFFFFFFFFFFFFFFFFF35
:101BC000FFFFFFFF496E697469616C697A696E672E
:101BD0002E2E2E00454347203320697320696E69FD
:101BE0007469616C697A656400002C000000000073
:101BF000010203040102030406070809450A000064
:101C000031090000070000000403000000B5DFF800
:101C100014B0DFF814A0DFF814C0FFF723FD00BDF7
:101C2000704700BF0000002028000020C41B0000F7
:101C3000FFFFFFFFFFFFFFFFFFFFFFFFFFFFFFFFB4
:101C4000FFFFFFFFFFFFFFFFFFFFFFFFFFFFFFFFA4
:101C5000FFFFFFFFFFFFFFFFFFFFFFFFFFFFFFFF94
:101C6000FFFFFFFFFFFFFFFFFFFFFFFFFFFFFFFF84
:101C7000FFFFFFFFFFFFFFFFFFFFFFFFFFFFFFFF74
:101C8000FFFFFFFFFFFFFFFFFFFFFFFF00B5DFF8D4
:101C900010B0DFF810A0FFF7AFFD00BD704700BF28
:101CA0000000002098000020FFFFFFFFFFFFFFFF64
:00000001FF
